:020000040000FA
:100000000C948C010C94BD010C94BD010C94BD01A9
:100010000C94BD010C94BD010C94BD010C94BD0168
:100020000C94BD010C94BD010C94BD010C94BD0158
:100030000C94BD010C94BD010C94BD010C94BD0148
:100040000C94BD010C94BD010C94BD010C94BD0138
:100050000C94DD100C94BD010C94BD010C94931014
:100060000C94BD010C945D100C9433100C94BD01E4
:100070000C94BD010C94BD010C94BD010C94BD0108
:100080000C94BD010C94BD010C94BD010C9408119D
:100090000C94BD010C94BD010C94BD010C94BD01E8
:1000A0000C94BD010C94BD010C94BD010C94BD01D8
:1000B0000C94BD010C94BD010C94BD010C94BD01C8
:1000C0000C94BD010C94BD010C94BD010C94BD01B8
:1000D0000C94BD010C94BD010C94BD010C94BD01A8
:1000E0000C94BD0107634236B79BD8A71A396856EE
:1000F00018AEBAAB558C1D3CB7CC5763BD6DEDFD4A
:10010000753EF6177231BF000000803F0800000006
:10011000BE922449123EABAAAA2ABECDCCCC4C3EFC
:1001200000000080BEABAAAAAA3E00000000BF00EB
:100130000000803F0000000000084178D3BB4387E7
:10014000D1133D190E3CC3BD4282AD2B3E68EC82FB
:1001500076BED98FE1A93E4C80EFFFBE01C4FF7F80
:100160003F00000000000C942B030C9457030C94E8
:1001700055180C9435030C940F020C94981A0C9497
:100180004C170C941C030C9451030C9410140C94F5
:100190001D020C94EC010C944D030C9416030C946A
:1001A0003B030C94BF010C9450050C9433110C9438
:1001B0005B030C94A7020C946B190C940C160C9412
:1001C0003F030C94FB010C94EF130C9428030C9444
:1001D0002B050C9420030C9456030C9455020C949C
:1001E00024130C9424030C9443030C9449030C949F
:1001F00031030C943704000020002300260029005E
:100200002C002F003200000100000301060109014B
:1002100000002100240027002A002D0030003300B8
:1002200001010000040107010A010000220025006D
:1002300028002B002E0031003400020100000501CF
:1002400008010B0105050505070508080808020255
:1002500002020A0A08080404040401010101010160
:1002600001010303030303030303040707070C0C43
:100270000C0C0C0C0C0C020202020606060606060A
:1002800006060B0B0B0B0B0B0B0B010210202008AF
:1002900008102040102040800201020108040201E1
:1002A0000102040810204080804020100804020150
:1002B00080040201804020100804020108040201A9
:1002C0000102040810204080010204081020408030
:1002D00000000A0B02090C0D0E08070304010000C0
:1002E000000000000000000000000000000000000E
:1002F00000000000000000000000000012111000CB
:1003000000000000000000000000000000000000ED
:10031000000000000000331111241FBECFEFD1E216
:10032000DEBFCDBF00E00CBF14E0A0E0B2E0E8EA21
:10033000FFE300E00BBF02C007900D92A031B107B0
:10034000D9F725E0A0E1B4E001C01D92AA30B207C0
:10035000E1F711E0CCE8D1E000E006C02197010907
:10036000802FFE010E94CA1FCB38D10780E008070A
:10037000A9F70E946A110C94D21F0C940000AF924E
:10038000BF92CF92DF92EF92FF920F931F93CF9382
:10039000DF936C017B018B01040F151FEB015E01E4
:1003A000AE18BF08C017D10759F06991D601ED9179
:1003B000FC910190F081E02DC6011995892B79F708
:1003C000C501DF91CF911F910F91FF90EF90DF90CA
:1003D000CF90BF90AF900895FC01538D448D252F91
:1003E00030E0842F90E0821B930B541710F0CF96CF
:1003F000089501970895FC01918D828D981761F001
:10040000A28DAE0FBF2FB11D5D968C91928D9F5F17
:100410009F73928F90E008958FEF9FEF0895FC01F6
:10042000918D828D981731F0828DE80FF11D858DA9
:1004300090E008958FEF9FEF0895FC01918D228D3C
:10044000892F90E0805C9F4F821B91098F739927C1
:10045000089589E694E00E941D0221E0892B09F4A9
:1004600020E0822F0895FC01A48DA80FB92FB11DA3
:10047000A35ABF4F2C91848D90E001968F739927DA
:10048000848FA689B7892C93A089B1898C918370B8
:1004900080648C93938D848D981306C00288F389B1
:1004A000E02D80818F7D80830895EF92FF920F93DE
:1004B0001F93CF93DF93EC0181E0888F9B8D8C8D10
:1004C00098131AC0E889F989808185FF15C09FB704
:1004D000F894EE89FF896083E889F98980818370C7
:1004E000806480839FBF81E090E0DF91CF911F9176
:1004F0000F91FF90EF900895F62E0B8D10E00F5F97
:100500001F4F0F731127E02E8C8D8E110CC00FB66C
:1005100007FCFACFE889F989808185FFF5CFCE0104
:100520000E943302F1CFEB8DEC0FFD2FF11DE35A4A
:10053000FF4FF0829FB7F8940B8FEA89FB89808187
:100540008062CFCF682F89E694E00C945502CF9358
:10055000DF93EC01888D8823B9F0AA89BB89E889EB
:10056000F9898C9185FD03C0808186FD0DC00FB691
:1005700007FCF7CF8C9185FFF2CF808185FFEDCF0F
:10058000CE010E943302E9CFDF91CF91089580E040
:1005900090E0892B29F00E94290281110E9400001D
:1005A00080E090E0892B49F080E090E0892B29F0F1
:1005B0000E94000081110E94000080E090E0892BE1
:1005C00049F080E090E0892B29F00E940000811121
:1005D0000E94000080E090E0892B49F080E090E0EC
:1005E000892B29F00E94000081110C9400000895CD
:1005F0008150823108F05AC0E82FF0E08827EC5F84
:10060000FC4F8F4F0C94CA1F2403280316031C03AE
:10061000200356032B03310335033B033F034303FE
:1006200049034D035603510357035B038091800038
:100630008F77809380000895809180008F7DF9CF1F
:1006400080918000877FF5CF84B58F7784BD089532
:1006500084B58F7DFBCF8091B0008F778093B00001
:1006600008958091B0008F7DF9CF809190008F77B1
:10067000809390000895809190008F7DF9CF8091B4
:100680009000877FF5CF8091A0008F778093A000A6
:1006900008958091A0008F7DF9CF8091A000877F81
:1006A000F5CF809120018F7780932001089580916C
:1006B00020018F7DF9CF80912001877FF5CF1F9397
:1006C000CF93DF93282F30E0F901E053FD4F849161
:1006D000F901E657FD4FD491F901EC5BFD4FC49150
:1006E000CC23A9F0162F81110E94F802EC2FF0E024
:1006F000EE0FFF1FE65DFD4FA591B4918FB7F89403
:10070000EC91111108C0D095DE23DC938FBFDF91EF
:10071000CF911F910895DE2BF8CFCF93DF9390E018
:10072000FC01E657FD4F24918C5B9D4FFC018491A9
:100730008823D1F090E0880F991FFC01E05FFD4F06
:10074000A591B491FC01E65DFD4FC591D491611175
:100750000EC09FB7F8948C91E22FE0958E238C9376
:100760002881E223E8839FBFDF91CF9108958FB75F
:10077000F894EC91E22BEC938FBFF6CF90917B0035
:10078000977F90937B00806480937C0080917A00B7
:10079000806480937A0080917A0086FDFCCF8091FE
:1007A00078009091790008958230910538F0880F93
:1007B000991F880F991F05970197F1F708953FB783
:1007C000F8948091310490913204A0913304B09157
:1007D000340426B5A89B05C02F3F19F00196A11D32
:1007E000B11D3FBFBA2FA92F982F8827BC01CD017B
:1007F000620F711D811D911D42E0660F771F881FDA
:10080000991F4A95D1F708958F929F92AF92BF9208
:10081000CF92DF92EF92FF926B017C010E94DF0387
:100820004B015C01C114D104E104F104B9F00E9450
:10083000DF03681979098A099B09683E73408105BD
:10084000910580F321E0C21AD108E108F10888EE91
:10085000880E83E0981EA11CB11CE4CFFF90EF909E
:10086000DF90CF90BF90AF909F908F9008950895A4
:10087000CF93DF9361E082E20E945F03CBE6D2E197
:10088000CE010197F1F760E082E20E945F032197B9
:10089000F1F7DF91CF910895CF93DF9361E08EE17F
:1008A0000E945F03C3E1DAE1CE010197F1F760E056
:1008B0008EE10E945F032197F1F7DF91CF910895B8
:1008C000CF93DF93EC0161E080E20E945F03CE01F1
:1008D0000E94D40360E080E20E945F0380E29EE415
:1008E0008C1B9D0BDF91CF910C94D403CF93DF939E
:1008F000EC0161E088E20E945F03CE010E94D40314
:1009000060E088E20E945F0380E29EE48C1B9D0B06
:10091000DF91CF910C94D403CF93DF93EC0161E08E
:1009200086E20E945F03CE010E94D40360E086E26B
:100930000E945F0380E29EE48C1B9D0BDF91CF91B0
:100940000C94D4034F925F926F927F928F929F92FA
:10095000AF92BF92CF92DF92EF92FF92CF93DF934D
:100960002B013C01CA01B90120E034E244EF58E414
:100970000E94641D4B015C01A301920160E070E0E4
:1009800080E89FE30E94051C20E034E244E759E43C
:100990000E94641D20E030E040E05FE30E94641D9F
:1009A0000E94771CEB01660F771F6B01770FEE0833
:1009B000FF0820E030E041E153E4C301B2010E94AE
:1009C000001C412C512C3201811119C0C301B2010C
:1009D0000E94AF1CA50194010E94001C87FF2CC03F
:1009E00060E08CE00E945F03CE010E94D403CE0140
:1009F0000E94D4034C0C5D1C6E1C7F1CE7CFC3010E
:100A0000B2010E94AF1CA50194010E94001C87FF47
:100A100013C061E08CE00E945F03CE010E94D4030A
:100A200060E08CE00E945F03CE010E94D4034C0C76
:100A30005D1C6E1C7F1CE3CFDF91CF91FF90EF9088
:100A4000DF90CF90BF90AF909F908F907F906F90EE
:100A50005F904F900895CF93C09115046C2F86E05E
:100A60000E945F0381E0C827C0931504809113049E
:100A700090911404019690931404809313040297A8
:100A800069F480915104909152040196909352041C
:100A9000809351041092140410921304CF9108957E
:100AA000CF93C09112046C2F83E00E945F0381E01A
:100AB000C827C093120480911004909111040196EC
:100AC0009093110480931004029769F480914F046D
:100AD0009091500401969093500480934F0410928B
:100AE000110410921004CF910895FC010190002090
:100AF000E9F73197AF01481B590BBC0189E694E037
:100B00000C94BF018F929F92AF92BF920F931F934D
:100B1000CF93DF93CDB7DEB7A1970FB6F894DEBFC2
:100B20000FBECDBF19A2423008F44AE08E010F5D1E
:100B30001F4F842E912CB12CA12CA50194010E9451
:100B4000A81FE62FB901CA01EA30F4F4E05DD8012C
:100B5000EE938D01232B242B252B79F790E080E059
:100B6000109719F0CD010E947505A1960FB6F89463
:100B7000DEBF0FBECDBFDF91CF911F910F91BF9010
:100B8000AF909F908F900895E95CE1CF0C9475052C
:100B9000CF93DF93EC0188E192E00E94C6051092AA
:100BA0006F0010927100BE01DD0F880B990BDF9171
:100BB000CF910C940404CF93DF930E947505EC0150
:100BC00082E292E00E9475058C0F9D1FDF91CF910C
:100BD00008954F925F926F927F928F929F92AF9201
:100BE000BF92CF92DF92EF92FF920F931F93CF931A
:100BF0006B017C01742EAC019B010E94671E88234F
:100C000099F085E292E0CF911F910F91FF90EF90C4
:100C1000DF90CF90BF90AF909F908F907F906F901C
:100C20005F904F900C94750546015701E894B7F812
:100C30002FEF3FEF4FE75FE7C501B4010E94671E4A
:100C400081110DC02FEF3FEF4FE75FE7C501B40102
:100C50000E94001C18161CF489E292E0D4CF2FEFFA
:100C60003FEF4FE75FE4C701B6010E945F1D181612
:100C70001CF48DE292E0C7CF2FEF3FEF4FE75FEC20
:100C8000C701B6010E94001C87FDF3CF20E030E0D1
:100C9000A901C701B6010E94001C10E000E087FF17
:100CA00008C08DE20E94A2028C01F7FAF094F7F8D6
:100CB000F094C0E060E070E080E09FE37C1641F0DB
:100CC00020E030E040E251E40E94051CCF5FF6CF07
:100CD000A70196010E94941B2B013C010E947E1CDF
:100CE0004B015C014AE00E9482057C01E00EF11E8E
:100CF000CC23B1F1C501B4010E94AD1C9B01AC0134
:100D0000C301B2010E94931B4B015C018EE20E9461
:100D1000A202E80EF91EC15018F120E030E040E2D6
:100D200051E4C501B4010E94641D2B013C010E94E5
:100D30007E1C4B01B12CA12C4AE0C501B4010E94DC
:100D40008205E80EF91EC501B4010E94AD1C9B018D
:100D5000AC01C301B2010E94931B4B015C01DBCFCC
:100D6000C701CF911F910F91FF90EF90DF90CF902F
:100D7000BF90AF909F908F907F906F905F904F90BB
:100D80000895CF93DF9342E00E94E905EC0182E2EF
:100D900092E00E9475058C0F9D1FDF91CF91089501
:100DA000CF92DF92EF92FF92CF93DF936C01990F76
:100DB000EE08FF08F7FE17C08DE20E94A202EC01C8
:100DC00066277727CB016C197D098E099F094AE0B8
:100DD0000E9482058C0F9D1FDF91CF91FF90EF90B5
:100DE000DF90CF9008954AE0C701B601DF91CF911F
:100DF000FF90EF90DF90CF900C948205CF93DF931C
:100E00000E94D006EC0182E292E00E9475058C0FF0
:100E10009D1FDF91CF910895CF93DF93EC0181E384
:100E200092E00E94C60510926F001092710061E07E
:100E300082E00E945F0361E087E00E945F031092FE
:100E40005204109251041092500410924F0482E305
:100E50000E94A20240E1409381001092800081E054
:100E60008093660420E43FE130936504209364049A
:100E7000309387002093860091E190938100409306
:100E80009100109290008093630430936204209349
:100E9000610430939700209396009093910020E591
:100EA00035E0309368042093670480936F002BE251
:100EB00035E030930502209304028093710089E0AD
:100EC0000E94A20280915104909152040E94FE0659
:100ED0008091510490915204C817D90784F7109259
:100EE0006F001092710060E087E00E945F0383E36F
:100EF0000E94A20290E080E0DF91CF910895CF930D
:100F0000DF93EC0188E192E00E94C60510926F0029
:100F10001092710060E082E00E945F0360E087E071
:100F20000E945F03109252041092510410925004D8
:100F300010924F0482E30E94A20240E1409381009C
:100F40001092800081E08093660420E43FE13093BA
:100F5000650420936404309387002093860091E118
:100F600090938100409391001092900080936304CD
:100F7000309362042093610430939700209396008D
:100F80009093910020E535E0309368042093670446
:100F900080936F002BE235E030930502209304022A
:100FA0008093710089E00E94A20280915104909187
:100FB00052040E94FE068091510490915204C81779
:100FC000D90784F710926F001092710061E082E0FF
:100FD0000E945F0383E3DF91CF910C94A2020F93F1
:100FE0001F93CF93DF938C01EB018BE392E00E9480
:100FF000C60510926F001092710060E082E00E94BE
:101000005F0361E087E00E945F0310925204109238
:1010100051041092500410924F0482E30E94A202E5
:10102000B801012E000C880B990B0E94AF1C9B018C
:10103000AC010E94941B9B01AC0160E070E080E871
:101040009FE30E94051C20E034E244E759E40E943B
:10105000641D0E947E1CAB01BC0180E18093810075
:1010600010928000DB01CA01E3E0880F991FAA1FDC
:10107000BB1FEA95D1F7009721E0A207B10540F424
:1010800021E02093660490936504809364040EC06D
:10109000009728E0A207B10508F04FC082E08093D6
:1010A00066047F71509365044093640480916404E6
:1010B00090916504909387008093860080916604E8
:1010C000806180938100B8016A507109072E000C7D
:1010D000880B990B0E94AF1C9B01AC010E94941BD2
:1010E0009B01AC0160E070E080E89FE30E94051C7A
:1010F00020E034E244E759E40E94641D0E947E1C13
:10110000AB01BC0180E18093910010929000DB0163
:10111000CA01E3E0880F991FAA1FBB1FEA95D1F708
:10112000009721E0A207B105D8F521E020936304E0
:10113000909362048093610441C0009720E4A20769
:10114000B10558F423E02093660436E0B695A795E0
:10115000979587953A95D1F796CF0097A10521E00D
:10116000B20740F424E020936604892F9A2FAB2F16
:10117000BB2789CF0097A10524E0B20758F425E0EA
:1011800020936604FAE0B695A79597958795FA950A
:10119000D1F779CF85E0809366048FEF9FEF73CF0F
:1011A000009728E0A207B10508F04CC082E08093C8
:1011B00063047F71509362044093610480916104E1
:1011C00090916204909397008093960080916304BD
:1011D00080618093910080E595E09093680480930E
:1011E000670481E080936F002BE235E030930502C5
:1011F000209304028093710089E00E94A2028091F2
:101200005104909152040E94FE06809151049091E5
:101210005204C817D90784F710926F00109271001A
:1012200061E082E00E945F0360E087E00E945F036C
:1012300083E30E94A20290E080E0DF91CF911F91B2
:101240000F910895009720E4A207B10558F423E018
:101250002093630446E0B695A795979587954A95A0
:10126000D1F766CF0097A10521E0B20740F424E052
:1012700020936304892F9A2FAB2FBB2759CF009758
:10128000A10524E0B20758F425E0209363042AE086
:10129000B695A795979587952A95D1F749CF85E07B
:1012A000809363048FEF9FEF43CF0F931F93CF93F0
:1012B000DF938C01EB018BE492E00E94C605109253
:1012C0006F001092710061E082E00E945F0360E0B5
:1012D00087E00E945F031092520410925104109212
:1012E000500410924F0482E30E94A202B801012E22
:1012F000000C880B990B0E94AF1C9B01AC010E9453
:10130000941B9B01AC0160E070E080E89FE30E94C9
:10131000051C20E034E244E759E40E94641D0E9469
:101320007E1CAB01BC0180E18093810010928000A3
:10133000DB01CA01E3E0880F991FAA1FBB1FEA95D2
:10134000D1F7009721E0A207B10540F421E02093F6
:10135000660490936504809364040EC0009728E0AF
:10136000A207B10508F04FC082E0809366047F7148
:1013700050936504409364048091640490916504E3
:1013800090938700809386008091660480618093AB
:101390008100B8016A507109072E000C880B990B67
:1013A0000E94AF1C9B01AC010E94941B9B01AC01ED
:1013B00060E070E080E89FE30E94051C20E034E2DA
:1013C00044E759E40E94641D0E947E1CAB01BC01ED
:1013D00080E18093910010929000DB01CA01E3E06C
:1013E000880F991FAA1FBB1FEA95D1F7009721E02C
:1013F000A207B105D8F521E020936304909362041D
:101400008093610441C0009720E4A207B10558F41D
:1014100023E02093660436E0B695A79597958795C7
:101420003A95D1F796CF0097A10521E0B20740F495
:1014300024E020936604892F9A2FAB2FBB2789CFF6
:101440000097A10524E0B20758F425E02093660434
:10145000FAE0B695A79597958795FA95D1F779CF44
:1014600085E0809366048FEF9FEF73CF009728E0AD
:10147000A207B10508F044C082E0809363047F7145
:1014800050936204409361048091610490916204DE
:10149000909397008093960080916304806180937D
:1014A000910080E595E0909368048093670481E063
:1014B00080936F002BE235E0309305022093040205
:1014C0008093710089E00E94A20280915104909162
:1014D00052040E94FE068091510490915204C81754
:1014E000D90784F710926F001092710083E30E9475
:1014F000A20290E080E0DF91CF911F910F910895BB
:10150000009720E4A207B10558F423E02093630478
:1015100046E0B695A795979587954A95D1F76ECFF2
:101520000097A10521E0B20740F424E02093630472
:10153000892F9A2FAB2FBB2761CF0097A10524E0FD
:10154000B20758F425E0209363042AE0B695A795E6
:10155000979587952A95D1F751CF85E080936304BD
:101560008FEF9FEF4BCFCF93DF9384E690E00E9405
:10157000C805C0910002D0910102D7FF0AC080E4E3
:1015800096E00E9460042196D0930102C09300026D
:10159000F0CF68EC70E082EC91E00E94EF0764EF1E
:1015A00071E080E090E00E9404046EEB70E082EC59
:1015B00091E00E9455098CE99FEF9093010280937E
:1015C0000002C0910002D0910102D7FF0AC088EE4C
:1015D00093E00E9460042196D0930102C093000220
:1015E000F0CFDF91CF910895AF92BF92CF92DF926B
:1015F000EF92FF920F931F93CF93DF9380E595E0D7
:10160000909368048093670421E020936F008BE23D
:1016100095E090930502809304022093710040911D
:10162000080550910905052E000C660B770B80E12B
:101630008093810010928000DB01CA0113E0880FC3
:10164000991FAA1FBB1F1A95D1F7009731E0A30776
:10165000B10538F420936604909365048093640484
:101660000DC0009728E0A207B105C0F582E0809385
:1016700066047F7150936504409364048091640410
:101680009091650490938700809386008091660412
:101690008061809381004091060550910705052ED9
:1016A000000C660B770B80E1809391001092900004
:1016B000DB01CA01E3E0880F991FAA1FBB1FEA954F
:1016C000D1F7009721E0A207B105D8F521E02093DA
:1016D0006304909362048093610441C0009730E4F6
:1016E000A307B10558F423E020936604D6E0B6952D
:1016F000A79597958795DA95D1F7AECF0097A10575
:1017000021E0B20740F424E020936604892F9A2F49
:10171000AB2FBB27A1CF0097A10534E0B30758F446
:1017200025E020936604FAE0B695A79597958795EE
:10173000FA95D1F791CF85E0809366048FEF9FEF04
:101740008BCF009738E0A307B10508F019C182E0FC
:10175000809363047F71509362044093610480918D
:101760006104909162049093970080939600809119
:10177000630480618093910080915F049091600484
:101780000E94D00682E592E00E94C60580915D0429
:1017900090915E040E94D00682E592E00E94C60508
:1017A00080915B0490915C040E94D00682E592E0F7
:1017B0000E94C6058091590490915A040E94D00657
:1017C00082E592E00E94C605809108059091090586
:1017D0000E94D00682E592E00E94C60582E292E075
:1017E0000E94750580E00E94BE036C019093600426
:1017F00080935F0481E00E94BE037C0190935E04AD
:1018000080935D0482E00E94BE038C0190935C048F
:1018100080935B0483E00E94BE03EC0190935A0422
:101820008093590486E2A82E82E0B82EB5016E1985
:101830007F09072E000C880B990B0E94AF1C20E03B
:1018400030E0A9010E94941B0E94771C6E537E4FCA
:10185000072E000C880B990B0E94AF1C9B01AC015A
:101860000E94941B9B01AC0160E070E080E89FE364
:101870000E94051C20E034E244E759E40E94641D04
:101880000E94771C7093090560930805B501601BE1
:10189000710B072E000C880B990B0E94AF1C20E0E7
:1018A00030E0A9010E94941B0E94771C6E537E4F6A
:1018B000072E000C880B990B0E94AF1C9B01AC01FA
:1018C0000E94941B9B01AC0160E070E080E89FE304
:1018D0000E94051C20E034E244E759E40E94641DA4
:1018E0000E94771C709307056093060533E5E316A5
:1018F00033E0F3060CF477C0033513400CF473C0E7
:1019000087E594E090930905809308059093070577
:10191000809306058091570490915804892B09F013
:101920007CC0C43F81E0D8070CF077C0809155049B
:1019300090915604009709F062C0809153049091F1
:1019400054040196909354048093530481E090E0F2
:1019500090935804809357042DEC3CEC4CE45EE3E8
:1019600060E070E081E694E4DF91CF911F910F91E8
:10197000FF90EF90DF90CF90BF90AF900C94A204B7
:10198000009720E4A207B10558F423E020936304F4
:1019900046E0B695A795979587954A95D1F799CE44
:1019A0000097A10531E0B30740F424E020936304DD
:1019B000892F9A2FAB2FBB278CCE0097A10524E04F
:1019C000B20758F425E0209363042AE0B695A79562
:1019D000979587952A95D1F77CCE85E0809363040F
:1019E0008FEF9FEF76CE24EFC21621E0D2060CF0E7
:1019F00091CFC43F31E0D3070CF482CF8BCF81303D
:101A0000910591F4209153043091540421503109EF
:101A100030935404209353049BCFC935D24024F013
:101A20001092580410925704DF91CF911F910F919B
:101A3000FF90EF90DF90CF90BF90AF900895CF933D
:101A4000DF93EC0180ED92E00E940C0781E090E0D2
:101A5000909356048093550464E670E080E090E033
:101A60000E94040464E670E084EF91E00E9455094E
:101A70000E94F40A80915304909154048C179D079E
:101A8000B9F784E791E00E940C0786E090E090931C
:101A90004E0480934D04DF91CF9108956F927F9211
:101AA0008F929F92AF92BF92CF92DF92EF92FF926E
:101AB0000F931F93CF93DF9384E592E00E94C605B6
:101AC000D0E0C0E010E000E098EDE92E92E0F92EC1
:101AD00022E9C22E22E0D22E3CE4A32E32E0B32E25
:101AE00088248394912C61E08AE00E945F03F701CF
:101AF0008491F6017490F50164906620B9F081112B
:101B00000E94F802E62DF0E0EE0FFF1FEA50FE4FB4
:101B1000A591B4918C91782249F0C4010C2E02C099
:101B2000880F991F0A94E2F7080F191F60E08AE0F6
:101B30000E945F032196CC30D105A9F687E090E0A2
:101B40000197F1F7C801DF91CF911F910F91FF909D
:101B5000EF90DF90CF90BF90AF909F908F907F904D
:101B60006F9008954F925F926F927F928F929F92A3
:101B7000AF92BF92CF92DF92EF92FF92CF93DF931B
:101B8000CDB7DEB760970FB6F894DEBF0FBECDBFFE
:101B900082E692E00E94C60584E00E94BE039A831A
:101BA000898360E08BE00E945F0360E08AE00E942E
:101BB0005F038BE39FE10197F1F761E089E00E9409
:101BC0005F0361E08BE00E945F0369817A816F5F50
:101BD0007F4F072E000C880B990B0E94040460E0D5
:101BE0008BE00E945F038BE090E00197F1F70E9489
:101BF0004E0D90932B0480932A040E944E0D9093D7
:101C00002904809328040E944E0D20912A043091CB
:101C10002B04309323042093220420912804309134
:101C2000290430932504209324049093270480935F
:101C3000260483E792E00E94C60560912204709119
:101C40002304072E000C880B990B0E94AF1C2B015C
:101C50003C01AC019B0160E070EF8FE795E40E94CE
:101C6000931B9B01AC010E94641D6D837E838F8357
:101C700098876091240470912504072E000C880B2E
:101C8000990B0E94AF1C69837A838B839C839B0191
:101C9000AC0160E070E0CB010E94931B9B01AC01A2
:101CA0000E94641D69877A878B879C8760912604D0
:101CB00070912704072E000C880B990B0E94AF1C13
:101CC0004B015C01AC019B0160E070E0CB010E9424
:101CD000931B9B01AC010E94641D6D877E878F87DB
:101CE000988B29853A854B855C856D817E818F81B6
:101CF00098850E94941B2D853E854F8558890E94AA
:101D0000941B0E94271E6B017C01C0921E04D0927E
:101D10001F04E0922004F0922104A301920160E0EC
:101D200070E0CB010E94931B2B013C01A5019401A3
:101D300060E070EF8FE795E40E94931B4B015C011C
:101D4000A3019201C301B2010E94641D29853A8555
:101D50004B855C850E94941B2B013C01A5019401DD
:101D6000C501B4010E94641D9B01AC01C301B20115
:101D70000E94941B0E94271E4B015C0180921A0452
:101D800090921B04A0921C04B0921D0429813A81F8
:101D90004B815C8160E070EF8FE795E40E94931BBC
:101DA0009B01AC010E94641D2D813E814F815885AD
:101DB0000E94941B2D853E854F8558890E94941B57
:101DC0000E94271E20E030E84BEB54E40E94941B55
:101DD0002B013C01409216045092170460921804A3
:101DE00070921904AC019B01C501B4010E945F1DF2
:101DF00018164CF4A3019201C701B6010E945F1DA1
:101E000018160CF4B6C0A5019401C701B6010E94D2
:101E1000001C87FDB1C087E090E09A83898389E840
:101E200092E00E94C60589819A818730910509F464
:101E3000A6C0089709F4BAC088E992E00E94DB05C1
:101E400020E030E040E05FE360E070E88AE893E49F
:101E50000E94A20420E030E040E05FE360E070E038
:101E600085EA93E40E94A20420E030E040E05FE3D2
:101E700060E070E089EB93E40E94A20420E030E08F
:101E800040E05FE360E070E085EA93E40E94A20432
:101E900020E030E040E05FE360E070E08CED93E450
:101EA0000E94A20488EA92E00E94DB058CEB92E09B
:101EB0000E94C60580912204909123040E94FE0690
:101EC00085EC92E00E94C60580912404909125043F
:101ED0000E94FE068EEC92E00E94C60580912604C8
:101EE000909127040E94FE0687ED92E00E94C605AD
:101EF00060911E0470911F04809120049091210430
:101F00000E94C10685EE92E00E94C60560911A0407
:101F100070911B0480911C0490911D040E94C106C5
:101F200083EF92E00E94C605609116047091170439
:101F300080911804909119040E94C10661E08BE021
:101F40000E945F0389819A8160960FB6F894DEBF84
:101F50000FBECDBFDF91CF91FF90EF90DF90CF907C
:101F6000BF90AF909F908F907F906F905F904F90B9
:101F7000089588E090E051CF86E090E04ECF8CE964
:101F800092E00E94DB0520E030E040E85FE360E0A3
:101F900070EC83E494E40E94A20420E030E040EC82
:101FA0005FE360E070EC84E294E47ACF81EA92E04F
:101FB0000E94DB052DEC3CEC4CE45EE360E070E855
:101FC0008EEA93E40E94A2042DEC3CEC4CE45EE328
:101FD00060E070E08CED93E40E94A2042DEC3CECF8
:101FE0004CE45EE360E070EC82E094E40E94A204C2
:101FF0002DEC3CEC4CE45EE360E070E88EEA93E4A8
:102000000E94A2042DEC3CEC4CE45EE360E070E046
:102010008CED93E40E94A2042DEC3CEC4CE45EE3D6
:1020200060E070EC82E094E40E94A2042DEC3CECB1
:102030004CE45EE360E070E88EEA93E40E94A20460
:102040002DEC3CEC4CE45EE360E070E08CED93E45E
:102050000E94A2042DEC3CEC4CE45EE360E070ECEA
:1020600082E094E41DCF1F920F920FB60F921124BD
:102070000BB60F922F933F934F935F936F937F9382
:102080008F939F93AF93BF93EF93FF9389E694E071
:102090000E943302FF91EF91BF91AF919F918F9179
:1020A0007F916F915F914F913F912F910F900BBE58
:1020B0000F900FBE0F901F9018951F920F920FB6A2
:1020C0000F9211240BB60F922F938F939F93EF9340
:1020D000FF93E0917904F0917A048081E0917F048C
:1020E000F091800482FD1DC09081809182048F5FF9
:1020F0008F7320918304821741F0E0918204F0E015
:10210000E759FB4F958F80938204FF91EF919F9148
:102110008F912F910F900BBE0F900FBE0F901F90BD
:1021200018958081F2CF1F920F920FB60F92112453
:102130002F933F938F939F93AF93BF9380912D04E1
:1021400090912E04A0912F04B091300430912C0472
:1021500023E0230F2D3758F50196A11DB11D2093C3
:102160002C0480932D0490932E04A0932F04B093FD
:1021700030048091310490913204A0913304B091E5
:1021800034040196A11DB11D809331049093320453
:10219000A0933304B0933404BF91AF919F918F917A
:1021A0003F912F910F900FBE0F901F90189526E82A
:1021B000230F0296A11DB11DD2CF1F920F920FB611
:1021C0000F9211240BB60F922F933F934F935F936F
:1021D0006F937F938F939F93AF93BF93EF93FF93EF
:1021E000E0916704F09168041995FF91EF91BF9118
:1021F000AF919F918F917F916F915F914F913F919F
:102200002F910F900BBE0F900FBE0F901F9018953F
:102210001F920F920FB60F9211240BB60F922F93AD
:102220003F934F935F936F937F938F939F93AF935E
:10223000BF93EF93FF93E0910402F091050219958B
:10224000FF91EF91BF91AF919F918F917F916F918E
:102250005F914F913F912F910F900BBE0F900FBE4A
:102260000F901F901895E9E6F4E01382128288EE31
:1022700093E0A0E0B0E084839583A683B7838AE0EF
:1022800092E09183808385EC90E09587848784EC4D
:1022900090E09787868780EC90E0918B808B81EC33
:1022A00090E0938B828B82EC90E0958B848B86EC14
:1022B00090E0978B868B118E128E138E148E84EF86
:1022C00091E090930905809308059093070580930A
:1022D00006050895789484B5826084BD84B58160D4
:1022E00084BD85B5826085BD85B5816085BD8091E1
:1022F0006E00816080936E00109281008091810059
:102300008260809381008091810081608093810050
:10231000809180008160809380008091B100846012
:102320008093B1008091B00081608093B000809173
:1023300091008260809391008091910081608093F0
:102340009100809190008160809390008091A10025
:1023500082608093A1008091A10081608093A100A0
:102360008091A00081608093A00080912101826013
:1023700080932101809121018160809321018091CE
:10238000200181608093200180917A008460809395
:102390007A0080917A00826080937A0080917A003E
:1023A000816080937A0080917A00806880937A00BF
:1023B0001092C100E0917904F0917A0482E0808368
:1023C000E0917504F09176041082E0917704F09129
:1023D00078048FEC808310928104E0917D04F09169
:1023E0007E0486E08083E0917B04F0917C04808110
:1023F00080618083E0917B04F0917C04808188601F
:102400008083E0917B04F0917C04808180688083EC
:10241000E0917B04F0917C0480818F7D808361E07A
:1024200086E00E948D0361E083E00E948D0361E0FD
:1024300082E00E948D0361E087E00E948D0361E0ED
:1024400085E00E948D0361E084E00E948D0361E0DD
:102450008DE00E948D0361E08EE10E948D0361E0BA
:1024600080E20E948D0361E082E20E948D0361E0C0
:1024700086E20E948D0361E088E20E948D0361E0A4
:102480008CE00E948D0361E082E00E945F0360E0C7
:1024900087E00E945F0361E085E00E945F0361E0E6
:1024A00084E00E945F0361E08DE00E945F0361E0D1
:1024B00089E00E948D0361E08BE00E948D0361E062
:1024C0008AE00E948D0360E088E00E948D032DEC7D
:1024D0003CEC4CE45EE360E070EC86E794E40E9440
:1024E000A2042DEC3CEC4CE45EE360E070EC84EA8A
:1024F00094E40E94A20481E093E00E94C605C0918A
:102500000202D0910302D7FF0AC088EE93E00E9436
:1025100060042196D0930302C0930202F0CF80EBB7
:102520009FEF9093030280930202C0910202D09128
:102530000302D7FF0AC084E195E00E947604219649
:10254000D0930302C0930202F0CF86EF9FEF9093E7
:10255000030280930202C0910202D0910302D7FFCE
:102560000AC080E293E00E948C042196D09303027B
:10257000C0930202F0CF8AE69FEF9093030280930C
:102580000202C0910202D0910302D7FF0AC00E944A
:102590004C040E9438042196D0930302C093020297
:1025A000F0CF87E00E94BE0390933C0480933B04ED
:1025B000853F9140B4F32DEC3CEC4CEC5EE360E0E5
:1025C00070EC84EA94E40E94A2042DEC3CEC4CEC08
:1025D0005EE360E070EE83EC94E40E94A2042DECD4
:1025E0003CEC4CEC5EE360E070ED82E095E40E9430
:1025F000A20460E085E00E945F0360E084E00E9446
:102600005F037CE9272E33243A9488248394912C09
:10261000C6E0D0E000EB1FEFE0904D04F0904E04D8
:1026200048E0E416F10408F0CAC0F7018827E45E28
:10263000FC4E8F4F0C94CA1F2413EF1310140C166A
:102640004C1755186B19981A87E093E00E94C6053D
:102650008BE492E00E94C60510926F001092710008
:1026600061E082E00E945F0360E087E00E945F0318
:1026700010925204109251041092500410924F0480
:1026800082E30E94A20240E1409381001092800008
:1026900021E02093660488E09AE19093650480939A
:1026A0006404909387008093860031E13093810029
:1026B00040939100109290002093630488E79AE180
:1026C00090936204809361049093970080939600A6
:1026D0003093910080E595E09093680480936704BF
:1026E00020936F008BE295E09093050280930402A3
:1026F0002093710080E00E94BE037C0190936004EF
:1027000080935F0481E00E94BE036C0190935E049D
:1027100080935D0482E00E94BE0390935C048093EA
:102720005B0483E00E94BE0390935A048093590493
:102730002091570430915804232B09F043C024EF13
:10274000E21621E0F206F4F5843F9140E4F484EFD0
:10275000C81681E0D806BCF48091530490915404CB
:10276000019690935404809353049092580480925D
:1027700057042DEC3CEC4CE45EE360E070E081E655
:1027800094E40E94A204809153049091540402970F
:1027900009F0B0CF90924E0480924D0410926F00D9
:1027A0001092710083E30E94A202809153049091E1
:1027B0005404029721F490924E0480924D040E949A
:1027C000C7022ACF29E5E21622E0F206E4F28935B3
:1027D0009240CCF21092580410925704D4CF84E166
:1027E00093E00E94DB058CE791E00E947F076CE29A
:1027F00071E084EF91E00E94EF0762E271E084EF04
:1028000091E00E9455098EE691E00E940C0762E378
:1028100070E082EC91E00E94550982E090E0D8C11E
:102820000E94F40A109252041092510480915304B1
:1028300090915404059719F6BB24B39435E0A32E68
:1028400043E0542E52E0452E66E2662E62E0762E7C
:1028500080E595E09093680480936704B0926F00E0
:102860008BE295E09093050280930402B092710090
:102870008091080590910905092E000CAA0BBB0B4D
:1028800020E12093810010928000AC01BD0123E083
:10289000440F551F661F771F2A95D1F74115510523
:1028A00021E06207710508F0F6C0B092660450930B
:1028B000650440936404809164049091650490934E
:1028C00087008093860080916604806180938100F8
:1028D0008091060590910705092E000CAA0BBB0BF1
:1028E00020E12093910010929000AC01BD0123E003
:1028F000440F551F661F771F2A95D1F741155105C3
:1029000021E06207710508F005C1B092630450939D
:1029100062044093610480916104909162049093F9
:10292000970080939600809163048061809391006A
:1029300080E00E94BE039093600480935F0481E076
:102940000E94BE036C0190935E0480935D0482E05C
:102950000E94BE037C0190935C0480935B0483E03F
:102960000E94BE0390935A0480935904B3016C19DA
:102970007D09072E000C880B990B0E94AF1C2AE9D9
:1029800039E949E95FE30E94641D20E030E0A901D4
:102990000E94941B0E94771C625A7E4F072E000CE7
:1029A000880B990B0E94AF1C9B01AC010E94941BE9
:1029B0009B01AC0160E070E080E89FE30E94051C91
:1029C00020E034E244E759E40E94641D0E94771C31
:1029D0007093090560930805B3016E197F09072EEE
:1029E000000C880B990B0E94AF1C2AE939E949E9D0
:1029F0005FE30E94641D20E030E0A9010E94941B67
:102A00000E94771C625A7E4F072E000C880B990B90
:102A10000E94AF1C9B01AC010E94941B9B01AC0166
:102A200060E070E080E89FE30E94051C20E034E253
:102A300044E759E40E94641D0E94771C70930705C7
:102A40006093060593E5C91693E0D9067CF023E56B
:102A5000E21623E0F20654F084E995E0909309052C
:102A600080930805909307058093060580914B0499
:102A700090914C04853091050CF08BC0209151044D
:102A800030915204253F31400CF483C089E393E038
:102A90000E94C6058FC04115510528E062077105E7
:102AA00040F440926604BF7190936504809364047F
:102AB00002CF4115510580E46807710550F450922A
:102AC0006604F6E07695679557954795FA95D1F7A0
:102AD000EECE41155105610591E0790740F424E0FF
:102AE00020936604452F562F672F7727E0CEA092BC
:102AF000660441155105610584E0780740F43AE029
:102B000076956795579547953A95D1F7D0CE8FEF43
:102B10009FEFCACF4115510528E06207710540F4C7
:102B200040926304BF719093620480936104F3CE7A
:102B30004115510580E46807710550F45092630413
:102B4000A6E07695679557954795AA95D1F7DFCE7C
:102B500041155105610591E0790740F424E0209387
:102B60006304452F562F672F7727D1CEA092630499
:102B700041155105610584E0780740F4EAE0769557
:102B8000679557954795EA95D1F7C1CE8FEF9FEF9F
:102B9000CACF9C012550310924303105F0F4209131
:102BA0005104309152042D3B3240BCF083E493E059
:102BB0000E94DB0580914B0490914C040E94FE061C
:102BC0006EE571E080E991E00E94EF0783E090E01C
:102BD00090934E0480934D04F2CD9C01295031090D
:102BE0002430310558F48091510490915204813B76
:102BF00094400CF42DCE8DE493E04ACF0D970CF465
:102C000027CE8091510490915204853A96400CF45D
:102C10001FCE87E593E03CCF81E693E00E94DB0581
:102C2000C0903D04D0903E041C141D0404F186EFB6
:102C30009FEF9093030280930202A0900202B09053
:102C40000302B7FE0CC080E293E00E948C049FEF69
:102C5000A91AB90AB0920302A0920202EECF2FEF96
:102C6000C21AD20AD0923E04C0923D04D9CF85E662
:102C700091E00E940C0710926F001092710081E3A6
:102C80000E94A20260E082E00E945F031092520460
:102C9000109251041092500410924F0482E30E944B
:102CA000A20240E1409381001092800021E0209335
:102CB000660480E29EE4909365048093640490939C
:102CC00087008093860031E130938100409391002A
:102CD00010929000209363049093620480936104A7
:102CE00090939700809396003093910080E595E053
:102CF000909368048093670420936F008BE295E0C3
:102D0000909305028093040220937100D12CC12C72
:102D1000B12CA12C4FEFC41AD40A87E00E94BE0345
:102D2000BC01990F880B990B0E94AF1C20E030E08A
:102D300040EA50E40E94641D20E030EC4FE754E488
:102D40000E94051C2AEC33EC4AE95FEB0E94D11D7E
:102D50002AE534E644ED51E40E94641D2B013C0158
:102D600020E030E048EC52E40E945F1D18160CF49D
:102D700067C04092350450923604609237047092D6
:102D8000380489E00E94A2026091350470913604F3
:102D9000809137049091380442E00E94E90526E6CC
:102DA00036E64AE951E46091350470913604809129
:102DB0003704909138040E94001C209151043091F6
:102DC000520487FF4DC0AA94AB2809F046C0309347
:102DD00044042093430410926F00109271004090BD
:102DE0003504509036046090370470903804409257
:102DF000450450924604609247047092480461E092
:102E000082E00E945F0320E030E048E951E4C30122
:102E1000B2010E94001C87FF30C020E5E22EF12C99
:102E200084EA96E00E948C0488EE93E00E9460049D
:102E300081E0E81AF108A1F794E0E92EF12C27C00F
:102E400080E090E0A8ECB2E48093350490933604DF
:102E5000A0933704B093380494CFAA24A394B12C40
:102E600093E0C916D10421F4D12CC12CB12CA12C92
:102E70002A3D32400CF44ECFAECF85E691E00E9461
:102E80000C0764E670E08CE291E00E945509F09234
:102E90004E04E0924D0493CC8CE693E00E94DB0557
:102EA00010923E0410923D0430E130938100109264
:102EB0008000FF24F394F092660488E298E69093F1
:102EC000650480936404909387008093860021E1D9
:102ED000209381003093910010929000F09263044F
:102EE000909362048093610490939700809396007E
:102EF0002093910010926F001092710084E793E08C
:102F00000E94C6051092520410925104109250046F
:102F100010924F0480E595E09093680480936704D5
:102F2000F0926F008BE295E090930502809304028B
:102F3000F0927100D12CC12CF12CE12C0E944C0498
:102F40000E94380487E00E94BE0390933C04809363
:102F50003B0480915104909152040E94D00683EC6E
:102F600092E00E94C60580913B0490913C040E942F
:102F7000FE0680913B0490913C048D52914085392E
:102F8000910598F410926F00109271008091510495
:102F90009091520490933A04809339042FEFE21AEF
:102FA000F20ACC24C394D12C04C091E0C916D104F8
:102FB000A9F34DEBE41642E0F4060CF4BFCF60E059
:102FC00082E00E945F0361E087E00E945F0340E1CE
:102FD000409381001092800021E02093660480E4F9
:102FE0009FE190936504809364049093870080939D
:102FF000860031E13093810040939100109290005F
:1030000020936304909362048093610490939700EB
:1030100080939600309391001092520410925104C4
:1030200080E595E0909368048093670420936F0097
:103030008BE295E090930502809304022093710047
:1030400080915104909152040E94D00683EC92E04A
:103050000E94C6058091390490913A040E94FE06B0
:103060008091390490913A040E9720915104309147
:1030700052042817390724F310926F001092710040
:1030800080914B0490914C04019690934C04809352
:103090004B048091490490914A04019690934A040C
:1030A0008093490485E090E093CD87E793E00E9408
:1030B000C6058091490490914A040E94FE068091C1
:1030C000490490914A048130910509F08EC0E09046
:1030D0004304F090440420E030E040E851E4609183
:1030E00045047091460480914704909148040E94E1
:1030F0005F1D181664F587ED92E08E199F090E94F6
:103100007F076CE474E084EF91E00E94EF0761E1D7
:1031100073E084EF91E00E94550988E691E00E94F7
:103120000C071093030200930202E0900202F09059
:103130000302F7FE44CB84E393E00E9476048FEF12
:10314000E81AF80AF0920302E0920202EECF9DE63E
:10315000E91691E0F906A4F187E893E00E94C6051C
:1031600080914304909144040E94FE0680914304A0
:10317000909144048C5691400E940C0764E670E0E4
:1031800084EF91E00E94EF0768EE73E080E090E04A
:103190000E9404041093030200930202E0900202D2
:1031A000F0900302F7FE12CD84E393E00E947604D0
:1031B0002FEFE21AF20AF0920302E0920202EECF3F
:1031C0008CE893E00E94C6058091430490914404EA
:1031D0000E94FE0620914304309144048CE691E065
:1031E000821B930B0E947F07C9CF029709F0E7CAA1
:1031F000209143043091440487ED92E0821B930BAD
:103200000E947F076CE474E084EF91E00E94EF0776
:1032100061E173E084EF91E00E94550988E691E056
:103220000E947F0768EC70E084EF91E00E94EF0756
:10323000909256048092550430920102209200022E
:103240008EEC9FEF90930302809302020E94B20DD6
:10325000909342048093410481E993E00E94C60563
:1032600080914104909142040E94FE060E94F40A5B
:1032700080914104909142048630910599F48091A7
:10328000530490915404019789F784EF91E00E94D0
:10329000C80586E691E00E940C07D0934E04C093C7
:1032A0004D048DCA8730910569F480915304909143
:1032B00054040397D9F684EF91E00E94C80580ED8D
:1032C00092E0E9CF089791F68091530490915404CD
:1032D000029761F6DACF80914104909142048730E1
:1032E000910509F45FC08830910509F4D6C00697AE
:1032F00009F065CA0E94B30A8091490490914A047A
:10330000019790934A048093490481E893E00E94D6
:10331000C6058091490490914A040E94FE0680915E
:10332000490490914A040097D9F4109256041092DF
:1033300055048DE691E00E940C0764EF71E080E097
:1033400090E00E94040464E670E084EF91E00E9443
:10335000550982E090E0909354048093530438CC54
:10336000019709F02CCA1093030200930202E09027
:103370000202F0900302F7FE0CC084E195E00E9487
:1033800076049FEFE91AF90AF0920302E092020232
:10339000EECF6CED75E080E090E00E94040487E0E1
:1033A00090E016CC84E690E00E94C805E090000210
:1033B000F0900102F7FE0CC080E496E00E946004E9
:1033C0009FEFE91AF90AF0920102E0920002EECFB3
:1033D00066E272E082EC91E00E94EF0764EF71E038
:1033E00080E090E00E94040464E472E082EC91E0EA
:1033F0000E9455093092010220920002E0900002E2
:10340000F0900102F7FE0CC088EE93E00E94600489
:103410002FEFE21AF20AF0920102E0920002EECFE0
:103420008091490490914A04019790934A048093B3
:10343000490481E893E00E94C60580914904909177
:103440004A040E94FE068091490490914A04009724
:1034500059F4109256041092550484E090E0909331
:10346000540480935304D9C9019709F0A8C9109353
:10347000030200930202E0900202F0900302F7FEC2
:1034800088CF84E195E00E9476049FEFE91AF90A5B
:10349000F0920302E0920202EECF0E94B30A809102
:1034A000490490914A04019790934A0480934904F7
:1034B00081E893E00E94C6058091490490914A04F6
:1034C0000E94FE068091490490914A040097B9F445
:1034D000109256041092550480E791E00E940C0768
:1034E00064EF71E080E090E00E94040464E670E024
:1034F00084EF91E00E94550983E090E0B0CF0197FE
:1035000009F05DC91093030200930202E0900202E9
:10351000F0900302F7FE3DCF84E195E00E9476042F
:103520002FEFE21AF20AF0920302E0920202EECFCB
:1035300080914104909142049093400480933F0411
:1035400030920102209200028EEC9FEF90930302D2
:10355000809302020E94B20D909342048093410432
:1035600081E993E00E94C605809141049091420454
:103570000E94FE06209141043091420480913F0454
:10358000909140042817390741F4D0934E04C0931A
:103590004D0481EA93E00E94DB0580914104909103
:1035A0004204079769F580913F049091400486306A
:1035B000910511F0089721F582E791E00E940C0730
:1035C000109256041092550464E670E080E090E09A
:1035D0000E94040464E670E084EF91E00E945509C3
:1035E0000E94F40A80915304909154040397C1F708
:1035F000D0934E04C0934D0487EB93E00E94DB050B
:103600008091410490914204069771F480913F04A7
:1036100090914004079741F481E090E00E941F0DD3
:1036200080ED93E00E94DB0580914104909142047B
:10363000089771F480913F0490914004079741F4FA
:1036400082E090E00E941F0D80EE93E00E94DB0577
:103650008091410490914204089771F580913F0454
:1036600090914004069741F582E791E00E940C0793
:10367000109256041092550464E670E080E090E0E9
:103680000E94040464E670E084EF91E00E94550912
:103690000E94F40A80915304909154040297C1F758
:1036A00084E791E00E947F07D0934E04C0934D04BD
:1036B00080EF93E00E94DB058091410490914204E9
:1036C000069709F07CC880913F04909140040897C8
:1036D00009F075C882E791E00E947F079092560436
:1036E0008092550464E670E080E090E00E9404045B
:1036F00064E670E084EF91E00E9455090E94F40AAC
:1037000080915304909154040197C1F784E791E0AC
:103710000E940C07D0934E04C0934D0480E094E0C7
:103720000E94DB054CC85058BB27AA270E94AB1B40
:103730000C94251D0E94171D38F00E941E1D20F0BC
:1037400039F49F3F19F426F40C94141D0EF4E095FF
:10375000E7FB0C940E1DE92F0E94361D58F3BA1793
:10376000620773078407950720F079F4A6F50C9497
:10377000581D0EF4E0950B2EBA2FA02D0B01B901A8
:1037800090010C01CA01A0011124FF27591B99F0D7
:10379000593F50F4503E68F11A16F040A22F232FE3
:1037A000342F4427585FF3CF469537952795A79533
:1037B000F0405395C9F77EF41F16BA0B620B730BDA
:1037C000840BBAF09150A1F0FF0FBB1F661F771F4B
:1037D000881FC2F70EC0BA0F621F731F841F48F400
:1037E000879577956795B795F7959E3F08F0B0CF89
:1037F0009395880F08F09927EE0F97958795089570
:103800000E94EA1C08F481E008950E94191C0C949F
:10381000251D0E941E1D58F00E94171D40F029F41E
:103820005F3F29F00C940E1D51110C94591D0C94FE
:10383000141D0E94361D68F39923B1F3552391F3AB
:10384000951B550BBB27AA2762177307840738F00F
:103850009F5F5F4F220F331F441FAA1FA9F335D06C
:103860000E2E3AF0E0E832D091505040E695001C20
:10387000CAF72BD0FE2F29D0660F771F881FBB1FDA
:10388000261737074807AB07B0E809F0BB0B802DB8
:10389000BF01FF2793585F4F3AF09E3F510578F0E4
:1038A0000C940E1D0C94591D5F3FE4F3983ED4F325
:1038B000869577956795B795F7959F5FC9F7880FB8
:1038C000911D9695879597F90895E1E0660F771F0A
:1038D000881FBB1F621773078407BA0720F0621B9B
:1038E000730B840BBA0BEE1F88F7E09508950E94C6
:1038F0007E1C6894B1110C94591D08950E943E1DC0
:1039000088F09F5798F0B92F9927B751B0F0E1F0A0
:10391000660F771F881F991F1AF0BA95C9F714C050
:10392000B13091F00E94581DB1E008950C94581DDB
:10393000672F782F8827B85F39F0B93FCCF3869589
:1039400077956795B395D9F73EF4909580957095E6
:1039500061957F4F8F4F9F4F0895E89409C097FB63
:103960003EF490958095709561957F4F8F4F9F4F56
:103970009923A9F0F92F96E9BB279395F69587959A
:1039800077956795B795F111F8CFFAF4BB0F11F45D
:1039900060FF1BC06F5F7F4F8F4F9F4F16C0882304
:1039A00011F096E911C0772321F09EE8872F762F3A
:1039B00005C0662371F096E8862F70E060E02AF07B
:1039C0009A95660F771F881FDAF7880F9695879567
:1039D00097F90895990F0008550FAA0BE0E8FEEF3C
:1039E00016161706E807F907C0F012161306E407C3
:1039F000F50798F0621B730B840B950B39F40A26BC
:103A000061F0232B242B252B21F408950A2609F499
:103A1000A140A6958FEF811D811D089597F99F679D
:103A200080E870E060E008959FEF80EC0895002446
:103A30000A941616170618060906089500240A9413
:103A400012161306140605060895092E0394000C99
:103A500011F4882352F0BB0F40F4BF2B11F460FF28
:103A600004C06F5F7F4F8F4F9F4F089557FD905851
:103A7000440F551F59F05F3F71F04795880F97FB32
:103A8000991F61F09F3F79F08795089512161306EC
:103A90001406551FF2CF4695F1DF08C0161617061B
:103AA0001806991FF1CF8695710561050894089550
:103AB000E894BB2766277727CB0197F908950E94E2
:103AC000EA1C08F48FEF08950E94771D0C94251DC1
:103AD0000E94171D38F00E941E1D20F0952311F042
:103AE0000C940E1D0C94141D11240C94591D0E944D
:103AF000361D70F3959FC1F3950F50E0551F629FDF
:103B0000F001729FBB27F00DB11D639FAA27F00D36
:103B1000B11DAA1F649F6627B00DA11D661F829F5D
:103B20002227B00DA11D621F739FB00DA11D621F42
:103B3000839FA00D611D221F749F3327A00D611D5F
:103B4000231F849F600D211D822F762F6A2F112441
:103B50009F5750409AF0F1F088234AF0EE0FFF1F74
:103B6000BB1F661F771F881F91505040A9F79E3FCB
:103B7000510580F00C940E1D0C94591D5F3FE4F329
:103B8000983ED4F3869577956795B795F795E79521
:103B90009F5FC1F7FE2B880F911D9695879597F92A
:103BA0000895FA01EE0FFF1F309621053105A1F1AE
:103BB0006115710561F48038BFE39B0749F1689492
:103BC0009038810561F08038BFEF9B0741F0992361
:103BD0004AF5FF3FE1053105210519F1E894089404
:103BE000E795D901AA2329F4AB2FBE2FF85FD0F3B4
:103BF00010C0FF5F70F4A695E0F7F73950F019F0A8
:103C0000FF3A38F49F779F930DD00F9007FC9058A0
:103C1000089546F00C94141D60E070E080E89FE386
:103C200008954FE79F775F934F933F932F930E94A1
:103C30002C1F2F913F914F915F910E94641D0C9416
:103C4000741E19F416F40C94141D0C94A61E0E94F4
:103C50003E1DB8F39923C9F3B6F39F57550B87FF61
:103C60000E94B41E0024A0E640EA900180585695B8
:103C7000979528F4805C660F771F881F20F0261721
:103C80003707480730F4621B730B840B2029312956
:103C90004A2BA69517940794202531254A2758F7D3
:103CA000660F771F881F20F026173707480730F464
:103CB000620B730B840B200D311D411DA09581F704
:103CC000B901842F9158880F9695879508950E9481
:103CD000EA1C880B990B089529F416F00C940E1D1C
:103CE0000C94581D0C94141D0E943E1DA8F3963888
:103CF000A0F707F80F92E8942BE33AEA48EB5FE766
:103D00000E947A1D0F920F920F924DB75EB70F92DD
:103D10000E94741FE4EEF0E00E94BB1E4F915F9181
:103D2000EF91FF91E595EE1FFF1F49F0FE57E06808
:103D30004427EE0F441FFA95E1F74195550B0E9479
:103D4000EE1E0F9007FE0C94E21E08959F3F31F087
:103D5000915020F4879577956795B795880F911DB9
:103D60009695879597F9089591505040660F771F63
:103D7000881FD2F70895DF93CF931F930F93FF927D
:103D8000EF92DF927B018C01689406C0DA2EEF017E
:103D90000E94771DFE01E894A591259135914591EA
:103DA0005591A6F3EF010E94AB1BFE019701A801FC
:103DB000DA9469F7DF90EF90FF900F911F91CF9108
:103DC000DF9108959B01AC0160E070E080E89FE323
:103DD0000C94051C0C940E1D0C94A61E0E943E1DF6
:103DE000D8F39923C9F3940F511DA3F39150504078
:103DF00094F059F0882332F0660F771F881F915096
:103E00005040C1F79E3F51052CF7880F911D9695A4
:103E1000879597F908955F3FACF0983E9CF0BB27DB
:103E2000869577956795B79508F4B1609395C1F736
:103E3000BB0F58F711F460FFE8CF6F5F7F4F8F4FD4
:103E40009F4FE3CF0C94591D16F00C94A61E0C94B2
:103E5000141D68940C940E1D0E943E1DA8F3992316
:103E6000C1F3AEF3DF93CF931F930F93FF92C92F4C
:103E7000DD2788232AF02197660F771F881FDAF73E
:103E800020E030E040E85FEB9FE3883920F0803E9F
:103E900038F021968F770E94941BECE0F1E004C08B
:103EA0000E94941BE9E3F1E00E94BB1E8B01BE015E
:103EB000EC01FB2E6F5771097595771F880B990BD5
:103EC0000E94AF1C28E132E741E35FE30E94771DC7
:103ED000AF2D9801AE01FF900F911F91CF91DF910F
:103EE0000E94AB1B0C94251DFA01DC01AA0FBB1F1D
:103EF0009B01AC01BF5728F4222733274427507871
:103F000020C0B75190F4AB2F0024469537952795E4
:103F1000011CA395D2F3002071F0220F331F441F20
:103F2000B395DAF30ED00C94931B61307105A0E8C1
:103F30008A07B94630F49B01AC01662777278827AA
:103F40009078309621F02083318342835383089503
:103F5000A1E21A2EAA1BBB1BFD010DC0AA1FBB1F8D
:103F6000EE1FFF1FA217B307E407F50720F0A21BFF
:103F7000B30BE40BF50B661F771F881F991F1A946C
:103F800069F760957095809590959B01AC01BD0196
:103F9000CF010895EE0FFF1F881F8BBF0790F6918A
:103FA000E02D1994F894FFCF9CFFCEFF370400005A
:103FB00000005502BF01EC01A7021D02FB010F0228
:103FC000E58FB3E6978BE59B9E000D0A006E616E50
:103FD00000696E66006F766600E5B7A6E6978BE52A
:103FE0009B9E00E5BE8CE980B2E38197E381BEE34E
:103FF000819900E79BB4E980B200090073686966A3
:1040000074496EE9968BE5A78B00636F6C6F7263E2
:104010006865636BE9968BE5A78B00636F6C6F72C5
:104020005F6A616467656D656E74E9968BE5A78B61
:104030000042616C6C20636F6C6F722069732000AA
:1040400052656400426C75650079656C6C6F770031
:104050002F2F2D2D204765742076616C7565202DDE
:104060002D2F2F005265642020203D2000477265CF
:10407000656E203D2000426C756520203D20005279
:104080005F746F5F676574436F6C6F7200425F743B
:104090006F5F676574436F6C6F7200595F746F5F19
:1040A000676574436F6C6F720062757A657200E3C6
:1040B00082B9E382BFE383BCE3838800E38193E3B7
:1040C0008193E381A7E887AAE794B1E3839CE38324
:1040D000BCE383ABE38292E890BDE381A8E38199DE
:1040E00000474554312C4745543D00474554322C38
:1040F0004745543D00474554332C4745543D004700
:104100004554342C4745543D0062616C6C20736506
:104110007263680062616C6C20496E00313100622C
:10412000616C6C206D6F76652062616C6C3D00E5A2
:104130008FB33D00E5B7A63D00E889B2E588A4E568
:10414000AE9AE7B590E69E9C00E5908CE38198E8F6
:1041500089B2E381AEE3839CE383BCE383AB00E9F4
:10416000BB84E889B2E38081E8B5A4E889B2E2873C
:10417000A8E99D92E889B200E99D92E889B2E286B9
:1041800092E8B5A4E889B200E99D92E889B2E28696
:1041900092E9BB84E889B200E8B5A4E889B2E28676
:1041A00092E9BB84E889B200E9BB84E889B2E2867F
:0841B00092E8B5A4E889B20011
:020000040003F7
:10E000000D9489F10D94B2F10D94B2F10D94B2F129
:10E010000D94B2F10D94B2F10D94B2F10D94B2F1F0
:10E020000D94B2F10D94B2F10D94B2F10D94B2F1E0
:10E030000D94B2F10D94B2F10D94B2F10D94B2F1D0
:10E040000D94B2F10D94B2F10D94B2F10D94B2F1C0
:10E050000D94B2F10D94B2F10D94B2F10D94B2F1B0
:10E060000D94B2F10D94B2F10D94B2F10D94B2F1A0
:10E070000D94B2F10D94B2F10D94B2F10D94B2F190
:10E080000D94B2F10D94B2F10D94B2F10D94B2F180
:10E090000D94B2F10D94B2F10D94B2F10D94B2F170
:10E0A0000D94B2F10D94B2F10D94B2F10D94B2F160
:10E0B0000D94B2F10D94B2F10D94B2F10D94B2F150
:10E0C0000D94B2F10D94B2F10D94B2F10D94B2F140
:10E0D0000D94B2F10D94B2F10D94B2F10D94B2F130
:10E0E0000D94B2F141546D656761323536300041AF
:10E0F000726475696E6F206578706C6F72657220DE
:10E1000073746B3530305632206279204D4C530099
:10E11000426F6F746C6F616465723E004875683F52
:10E1200000436F6D70696C6564206F6E203D200048
:10E130004350552054797065202020203D20005FF9
:10E140005F4156525F415243485F5F3D2000415658
:10E1500052204C696243205665723D20004743437C
:10E160002056657273696F6E203D20004350552024
:10E1700049442020202020203D20004C6F7720663D
:10E18000757365202020203D20004869676820665F
:10E190007573652020203D200045787420667573D6
:10E1A00065202020203D20004C6F636B2066757336
:10E1B000652020203D20004D617220203720323024
:10E1C000313300312E362E3800342E332E350056A2
:10E1D00023202020414444522020206F7020636F70
:10E1E00064652020202020696E73747275637469E1
:10E1F0006F6E2061646472202020496E74657272B3
:10E20000757074006E6F20766563746F7200726A49
:10E210006D702020006A6D70200057686174207056
:10E220006F72743A00506F7274206E6F7420737541
:10E2300070706F72746564004D7573742062652030
:10E2400061206C6574746572002000577269747483
:10E25000696E672045450052656164696E672045B7
:10E26000450045452065727220636E743D00504F35
:10E27000525400303D5A65726F2061646472003FF1
:10E280003D43505520737461747300403D454550C3
:10E29000524F4D207465737400423D426C696E6B41
:10E2A000204C454400453D44756D70204545505215
:10E2B0004F4D00463D44756D7020464C415348001B
:10E2C000483D48656C70004C3D4C69737420492F83
:10E2D0004F20506F72747300513D51756974005234
:10E2E0003D44756D702052414D00563D73686F7707
:10E2F00020696E7465727275707420566563746FF0
:10E30000727300593D506F727420626C696E6B00BD
:10E310002A0011241FBECFEFD1E2DEBFCDBF01E046
:10E320000CBF12E0A0E0B2E0EEE1FDEF03E00BBFB6
:10E3300002C007900D92A030B107D9F712E0A0E01B
:10E34000B2E001C01D92AE30B107E1F70F9460F367
:10E350000D948DFE01E20EBF0FEF0DBF11241FBE05
:10E360000D9460F30D9400F020E030E040ED57E0B4
:10E3700005C0FA013197F1F72F5F3F4F2817390792
:10E38000C0F308959C01260F311DC901A0E0B0E043
:10E390002F5F3F4FABBFFC018791882361F08093D3
:10E3A000C6008091C00086FFFCCF8091C0008064D1
:10E3B0008093C000EACF08958DE08093C6008091DD
:10E3C000C00086FFFCCF8091C00080648093C000B5
:10E3D0008AE08093C6008091C00086FFFCCF8091C8
:10E3E000C00080648093C00008950F94C2F10F9420
:10E3F000DCF10895FC019081992359F09093C600B7
:10E400008091C00086FFFCCF8091C0008064809323
:10E41000C0003196992379F70895282F982F929567
:10E420009F70892F805D8A3308F0895F8093C600D2
:10E430008091C00086FFFCCF8091C00080648093F3
:10E44000C000822F8F70982F905D9A3308F0995FEB
:10E450009093C6008091C00086FFFCCF8091C000E1
:10E4600080648093C00008959C01FB01853691056E
:10E470001CF46330710594F0C90164E670E00F94F8
:10E480002EFE605D7F4F6093C6008091C00086FFC6
:10E49000FCCF8091C00080648093C0002B30310598
:10E4A00014F43297B4F0C90164E670E00F942EFEC4
:10E4B0006AE070E00F942EFE605D7F4F6093C600AF
:10E4C0008091C00086FFFCCF8091C0008064809363
:10E4D000C000C9016AE070E00F942EFEC0968093E0
:10E4E000C6008091C00086FFFCCF8091C000806490
:10E4F0008093C00008951F93182F8EE692EE60E07F
:10E500000F94C2F11093C6008091C00086FFFCCF2B
:10E510008091C00080648093C0000F94DCF11F9153
:10E5200008952F923F924F925F926F927F928F92B7
:10E530009F92AF92BF92CF92DF92EF92FF920F9392
:10E540001F93DF93CF93CDB7DEB762970FB6F894E2
:10E55000DEBF0FBECDBF382E622ECA01DB015C01CB
:10E560006D01772420E2222E2E010894411C511CBB
:10E570008BC081E0A81680E0B80681E0C80680E084
:10E58000D80628F0C601AA27BB270F940DF2BB2797
:10E59000AD2D9C2D8B2D0F940DF28A2D0F940DF225
:10E5A0002092C6008091C00086FFFCCF8091C00001
:10E5B00080648093C0009DE29093C6008091C0006B
:10E5C00086FFFCCF8091C00080648093C0002092C1
:10E5D000C6008091C00086FFFCCF8091C00080649F
:10E5E0008093C00019828601750188249924A1E0D6
:10E5F0003A1651F03A1620F0B2E03B1661F409C029
:10E600000BBFF701779007C0C7010F9477FE782EF4
:10E6100002C0F7017080872D0F940DF22092C60082
:10E620008091C00086FFFCCF8091C0008064809301
:10E63000C000872D8052F401EF70F0708F3520F408
:10E64000E40DF51D708204C0E40DF51D8EE280839B
:10E650000894E11CF11C011D111D0894811C911CE2
:10E6600090E18916910409F0C2CF80E190E0A0E02A
:10E67000B0E0A80EB91ECA1EDB1E198AC2010F9493
:10E68000FAF10F94DCF16A94662009F072CF629679
:10E690000FB6F894DEBF0FBECDBFCF91DF911F91B3
:10E6A0000F91FF90EF90DF90CF90BF90AF909F9031
:10E6B0008F907F906F905F904F903F902F90089534
:10E6C0002F923F924F925F926F927F928F929F9282
:10E6D000AF92BF92CF92DF92EF92FF920F931F9370
:10E6E000DF93CF93CDB7DEB7CD53D1400FB6F894BB
:10E6F000DEBF0FBECDBF01E20EBF0FEF0DBF94B75F
:10E70000F894A89514BE80916000886180936000A1
:10E7100010926000789493FF05C0E0910002F091A0
:10E7200001021995279A2F9A8091C00082608093E8
:10E73000C00080E18093C40088E18093C1000000A4
:10E74000EE24FF24870144E0A42EB12CCC24DD2448
:10E7500024C0C5010197F1F70894E11CF11C011DCB
:10E76000111D21E2E2162EE4F20620E0020720E06D
:10E77000120718F031E0C32ED12CC801B70127ECE5
:10E780003BE140E050E00F9441FE611571058105C9
:10E79000910519F485B1805885B98091C00087FD35
:10E7A00003C0C114D104A9F2A6014F5F5F4FC25E3E
:10E7B000DE4F59834883CE51D140C25EDE4F8881FF
:10E7C0009981CE51D140019711F00D9410FEC05D9A
:10E7D000DE4F19821882C053D14060E0C15DDE4F28
:10E7E0001882CF52D14088249924C35DDE4F19820C
:10E7F0001882CD52D140C05EDE4F188219821A8233
:10E800001B82C052D140CE5CDE4F188219821A8220
:10E810001B82C253D140EE24FF2487010BBFF701B6
:10E8200007911691C45CDE4F19830883CC53D14005
:10E830000D940BFEC25EDE4F28813981CE51D1404E
:10E840002130310509F52091C600C25EDE4F1982E4
:10E850001882CE51D14022C02F5F3F4F4F4F5F4FA4
:10E86000213082E138078AE7480780E0580780F0C6
:10E87000C45CDE4FE881F981CC53D140EF5FFF4F9C
:10E8800019F0EE27FF27099420E030E040E050E047
:10E890008091C00087FFE0CF2091C600C35DDE4FAE
:10E8A00048815981CD52D1404F5F5F4FC35DDE4FEC
:10E8B00059834883CD52D140213209F063C64A3092
:10E8C000510508F05FC60894811C911C53E0851621
:10E8D000910409F059C600E010E018C081E280936D
:10E8E000C6008091C00086FFFCCF8091C00080648C
:10E8F0008093C0002F5F3F4F2931310579F70F9486
:10E90000DCF10F5F1F4F0530110519F020E030E0FA
:10E91000E5CF10920A0210920B0210920C02109294
:10E920000D02109206021092070210920802109235
:10E930000902109202021092030210920402109235
:10E9400005028FEE90EE60E00F94F5F180E191EE1C
:10E9500060E00F94C2F18091C00087FFFCCF9091DE
:10E96000C600903608F09F759032B8F09093C600BC
:10E970008091C00086FFFCCF8091C00080648093AE
:10E98000C000A0E2A093C6008091C00086FFFCCF2B
:10E990008091C00080648093C000983409F4D7C18E
:10E9A0009934B8F4923409F459C1933458F490333B
:10E9B00019F1903308F4E3C59F33A1F1903409F0C5
:10E9C000DEC5BDC0953409F470C1963409F0D7C5D1
:10E9D00098C1923509F42BC2933538F49C3409F46C
:10E9E000F5C1913509F0CBC518C2963509F445C279
:10E9F000993509F0C4C567C483E792EE62E00F94CD
:10EA0000F5F110920602109207021092080210927D
:10EA1000090210920A0210920B0210920C0210923C
:10EA20000D0213C18FE792EE62E00F94F5F18FEEC5
:10EA300090EE60E00F94F5F181E291EE60E00F94CA
:10EA4000C2F187EB91EE60E00F94F5F180E391EE77
:10EA500060E00F94C2F184EE90EE60E00F94F5F167
:10EA60008FE391EE60E00F94C2F186E090E061E008
:10EA700070E00F9434F20F94DCF18DE591EE60E0DC
:10EA80000F94C2F189EC91EE60E00F94F5F18EE401
:10EA900091EE60E00F94C2F183EC91EE60E00F9490
:10EAA000F5F18CE691EE60E00F94C2F18EE10F94E7
:10EAB0000DF288E90F940DF281E00F940DF20F949E
:10EAC000DCF18BE791EE60E00F94C2F119E0E0E039
:10EAD000F0E010935700E4918E2F0F940DF20F94F5
:10EAE000DCF18AE891EE60E00F94C2F1E3E0F0E03F
:10EAF00010935700E4918E2F0F940DF20F94DCF1D8
:10EB000089E991EE60E00F94C2F1E2E0F0E0109349
:10EB10005700E4918E2F0F940DF20F94DCF188EAE8
:10EB200091EE60E00F94C2F1E1E0F0E01093570045
:10EB30001491812F0F940DF20F94DCF107CF8BE825
:10EB400092EE62E00F94F5F18BE492EE60E00F94A8
:10EB5000F5F10F94DCF100E010E019C0C8016F2D51
:10EB60000F947FFEFF2031F489E492EE60E00F9471
:10EB7000C2F10BC0F092C6008091C00086FFFCCFAE
:10EB80008091C00080648093C0000F5F1F4FC80158
:10EB900081519F41A0E0B0E0ABBFFC01F790BAE229
:10EBA000FB1621F0E2E000301E07C1F60F94DCF105
:10EBB0000F94DCF187E592EE60E00F94F5F10F948D
:10EBC000DCF1CC24DD2400E010E01EC0C8010F946D
:10EBD00077FEF82E882331F489E492EE60E00F94FA
:10EBE000C2F10BC08093C6008091C00086FFFCCFAD
:10EBF0008091C00080648093C000FE1419F00894D6
:10EC0000C11CD11C0F5F1F4FC80181519F41A0E063
:10EC1000B0E0ABBFFC01E790FAE2EF1621F022E092
:10EC20000030120799F60F94DCF10F94DCF182E6C4
:10EC300092EE60E00F94C2F1C60161E070E00F94C3
:10EC400034F20F94DCF10F94DCF110920202109276
:10EC50000302109204021092050278CE89E992EE26
:10EC600062E00F94F5F1279A2F9A16C02F9880E052
:10EC700090E0E0EDF7E03197F1F7019684369105E9
:10EC8000C1F72F9A80E090E0E0EDF7E03197F1F7DF
:10EC9000019684369105C1F78091C00087FFE6CFC9
:10ECA0008091C00087FFFCCF64C485EA92EE62E0E9
:10ECB0000F94F5F140910202509103026091040219
:10ECC0007091050281E020E10F9491F2809102029F
:10ECD00090910302A0910402B091050280509F4FD1
:10ECE000AF4FBF4F8093020290930302A0930402A0
:10ECF000B093050280509041A040B04008F426CE69
:10ED0000A4CF83EB92EE62E00F94F5F140910602FE
:10ED100050910702609108027091090280E020E1A1
:10ED20000F9491F28091060290910702A09108023F
:10ED3000B091090280509F4FAF4FBF4F80930602A2
:10ED400090930702A0930802B0930902FFCD80ECD4
:10ED500092EE62E00F94F5F183E792EE60E00F949B
:10ED6000F5F18FE792EE60E00F94F5F18BE892EE0B
:10ED700060E00F94F5F189E992EE60E00F94F5F10F
:10ED800085EA92EE60E00F94F5F183EB92EE60E09D
:10ED90000F94F5F180EC92EE60E00F94F5F187ECC2
:10EDA00092EE60E00F94F5F188ED92EE60E00F9442
:10EDB000F5F18FED92EE60E00F94F5F18AEE92EEB0
:10EDC00060E00F94F5F183E093EEBDCD87EC92EE19
:10EDD00062E00F94F5F181E40F947BF282E40F94EA
:10EDE0007BF283E40F947BF284E40F947BF285E45E
:10EDF0000F947BF286E40F947BF287E40F947BF20E
:10EE000088E40F947BF28AE40F947BF28BE40F94F6
:10EE10007BF28CE40F947BF299CD88ED92EE62E068
:10EE20000F94F5F1772473948824992409C48FED05
:10EE300092EE62E00F94F5F140910A0250910B02BC
:10EE400060910C0270910D0282E020E10F9491F22A
:10EE500080910A0290910B02A0910C02B0910D02D8
:10EE600080509F4FAF4FBF4F80930A0290930B0289
:10EE7000A0930C02B0930D0269CD8AEE92EE62E08F
:10EE80000F94F5F184EE90EE60E00F94F5F18FECC5
:10EE900091EE60E00F94F5F1662477244301CC5D98
:10EEA000DE4F19821882C452D140D401C301B695F5
:10EEB000A79597958795CA5DDE4F88839983AA8326
:10EEC000BB83C652D140CC5DDE4FA881B981C4520C
:10EED000D1401196CC5DDE4FB983A883C452D14096
:10EEE000CD0162E070E00F9434F2B0E2B093C6005E
:10EEF0008091C00086FFFCCF8091C0008064809329
:10EF0000C000EDE2E093C6008091C00086FFFCCF18
:10EF10008091C00080648093C000F0E2F093C6004E
:10EF20008091C00086FFFCCF8091C00080648093F8
:10EF3000C000CA5DDE4FE880F9800A811B81C6529D
:10EF4000D140BB27A12F902F8F2D0F940DF2CA5DBA
:10EF5000DE4F8881C652D1400F940DF2B0E2FB2EF5
:10EF6000F092C6008091C00086FFFCCF8091C00067
:10EF700080648093C0000DE30093C6008091C000C0
:10EF800086FFFCCF8091C00080648093C00010E2B7
:10EF90001093C6008091C00086FFFCCF8091C00016
:10EFA00080648093C0008BBEF3012791C65DDE4F65
:10EFB0002883CA52D140A22EBB24CC24DD2408943D
:10EFC000611C711C811C911C8BBEF3018791282E42
:10EFD0003324442455240894611C711C811C911C09
:10EFE0008BBEF3013791C55DDE4F3883CB52D140E4
:10EFF0000894611C711C811C911C8BBEF30147910C
:10F00000C45DDE4F4883CC52D140ADEFEA2EAFEF66
:10F01000FA2EAFEF0A2FAFEF1A2F6E0C7F1C801E57
:10F02000911E142D032DF22CEE24EA0CFB1C0C1D5A
:10F030001D1D0F940DF220E22093C6008091C000A8
:10F0400086FFFCCF8091C00080648093C000C65DC5
:10F05000DE4F8881CA52D1400F940DF230E23093D6
:10F06000C6008091C00086FFFCCF8091C000806404
:10F070008093C000C45DDE4F8881CC52D1400F9494
:10F080000DF240E24093C6008091C00086FFFCCFA5
:10F090008091C00080648093C000C55DDE4F888190
:10F0A000CB52D1400F940DF250E25093C6008091A4
:10F0B000C00086FFFCCF8091C00080648093C000B8
:10F0C0008FEFE8168FEFF80680E0080780E018075A
:10F0D00031F484E092EE60E00F94C2F1DFC0D80119
:10F0E000C7018070907CA070B0708050904CA040A0
:10F0F000B040D1F52FEF3FE340E050E0E222F322B1
:10F1000004231523CA5DDE4FA880B980CA80DB8046
:10F11000C652D140AE0CBF1CC01ED11EAA0CBB1CD7
:10F12000CC1CDD1C8EE092EE60E00F94C2F1BB2798
:10F13000A12F902F8F2D0F940DF28E2D0F940DF285
:10F1400030E23093C6008091C00086FFFCCF8091F2
:10F15000C00080648093C0004EE34093C60080915D
:10F16000C00086FFFCCF87C08EE09EEFA0E0B0E03D
:10F17000E822F9220A231B239CE0E91694E9F90608
:10F1800090E0090790E0190709F088C0C45DDE4FE0
:10F19000A881CC52D140EA2EFF2400E010E0102FCD
:10F1A0000F2DFE2CEE24C55DDE4FB881CB52D14031
:10F1B000EB0EF11C011D111DD601C501817090706F
:10F1C000A070B070DC0199278827E80EF91E0A1F8D
:10F1D0001B1F20EF30E040E050E0A222B322C42207
:10F1E000D52241E1AA0CBB1CCC1CDD1C4A95D1F7F1
:10F1F000EA0CFB1C0C1D1D1D81E090E0A0E0B0E0BE
:10F20000282239224A225B2235E1220C331C441C7D
:10F21000551C3A95D1F7E20CF31C041D151D57013E
:10F220006801AA0CBB1CCC1CDD1C85E192EE60E0E1
:10F230000F94C2F1C801AA27BB270F940DF2BB2778
:10F24000A12F902F8F2D0F940DF28E2D0F940DF274
:10F2500090E29093C6008091C00086FFFCCF809121
:10F26000C00080648093C000AEE3A093C60080918C
:10F27000C00086FFFCCF8091C00080648093C000F6
:10F28000C601AA27BB270F940DF2BB27AD2D9C2DDD
:10F290008B2D0F940DF28A2D0F940DF20F94DCF14B
:10F2A000CC5DDE4FE881F981C452D140F99709F471
:10F2B0004DCBF4E0EF2EF12C012D112D6E0C7F1CA7
:10F2C000801E911EF2CD83E093EE62E00F94F5F183
:10F2D0008AE192EE60E00F94C2F18091C00087FF56
:10F2E000FCCF1091C6001F751093C6008091C0001E
:10F2F00086FFFCCF8091C00080648093C0000F9493
:10F30000DCF1812F81548A3108F036C1163409F4BA
:10F3100095C0173490F4133409F44EC0143430F40B
:10F320001134F1F0123409F01DC130C0143409F465
:10F3300059C0153409F016C16BC01A3409F4C4C0A1
:10F340001B3438F4173409F48FC0183409F00AC19B
:10F35000A1C01B3409F4D2C01C3409F003C1E8C0B9
:10F360008FEF81B90DC082B1809582B980E090E0C5
:10F37000E0EDF7E03197F1F70196883C9105C1F790
:10F380008091C00087FFEFCF12B8EFC08FEF84B934
:10F390000DC085B1809585B980E090E0E0EDF7E0A3
:10F3A0003197F1F70196883C9105C1F78091C00033
:10F3B00087FFEFCF15B8D9C08FEF87B90DC088B1DF
:10F3C000809588B980E090E0E0EDF7E03197F1F7C3
:10F3D0000196883C9105C1F78091C00087FFEFCF6F
:10F3E00018B8C3C08FEF8AB90DC08BB180958BB9A7
:10F3F00080E090E0E0EDF7E03197F1F70196883C8E
:10F400009105C1F78091C00087FFEFCF1BB8ADC059
:10F410008FEF8DB90DC08EB180958EB980E090E0F0
:10F42000E0EDF7E03197F1F70196883C9105C1F7DF
:10F430008091C00087FFEFCF1EB897C08FEF80BBD1
:10F440000DC081B3809581BB80E090E0E0EDF7E0F6
:10F450003197F1F70196883C9105C1F78091C00082
:10F4600087FFEFCF11BA81C08FEF83BB0DC084B38C
:10F47000809584BB80E090E0E0EDF7E03197F1F714
:10F480000196883C9105C1F78091C00087FFEFCFBE
:10F4900014BA6BC08FEF809301010FC080910201FD
:10F4A00080958093020180E090E0E0EDF7E03197F5
:10F4B000F1F70196883C9105C1F78091C00087FF64
:10F4C000EDCF1092020151C08FEF809304010FC065
:10F4D0008091050180958093050180E090E0E0ED4A
:10F4E000F7E03197F1F70196883C9105C1F78091DB
:10F4F000C00087FFEDCF1092050137C08FEF8093DA
:10F5000007010FC08091080180958093080180E079
:10F5100090E0E0EDF7E03197F1F70196883C910536
:10F52000C1F78091C00087FFEDCF109208011DC088
:10F530008FEF80930A010FC080910B01809580931B
:10F540000B0180E090E0E0EDF7E03197F1F70196F4
:10F55000883C9105C1F78091C00087FFEDCF1092E4
:10F560000B0103C085E292EEEEC98091C00087FFD7
:10F57000FCCF8091C600EAC988E392EEE4C98CE131
:10F5800091EEE1C988249924933011F1943028F444
:10F59000913089F09230B8F408C0953061F195301F
:10F5A000F0F0963009F048C043C02B3109F042C951
:10F5B00091E06BE13FC96227C15DDE4F2883CF52E6
:10F5C000D14092E037C9B22FA0E0622793E032C960
:10F5D000822F90E0A82BB92B622794E02BC92E3004
:10F5E00009F039C3622795E0C05DDE4F19821882A9
:10F5F000C053D1401FC9E1E0F0E0EC0FFD1FC05D3A
:10F60000DE4F08811981C053D140E00FF11F2083E4
:10F610000F5F1F4FC05DDE4F19830883C053D14079
:10F6200062270A171B0709F005C9D80196E002C92D
:10F63000261709F010C303C0973009F0FBC87724E0
:10F640009981933109F412C19431C8F4963009F4C8
:10F65000D8C0973050F4923009F406C1933009F4C1
:10F660006DC0913009F059C253C0913109F477C08F
:10F67000923108F0BBC0903109F04FC2F5C098310B
:10F6800009F487C0993150F4953109F4EFC09531F0
:10F6900008F4C6C1963109F040C2C2C19A3109F4DA
:10F6A0006CC09A3108F491C09B3109F45BC09D3164
:10F6B00009F033C29D81903359F48F81882311F46E
:10F6C0009EE11CC0813011F091E018C098E916C08D
:10F6D000892F807591F0903539F4E0E0F0E089E011
:10F6E0008093570094910AC0983539F4E3E0F0E034
:10F6F00089E080935700949101C090E01A821B82A8
:10F700008D818C831D829E831F8227E030E009C299
:10F710001A8288E08B8381E48C8386E58D8382E581
:10F720008E8389E48F8383E5888780E589878FE5E9
:10F730008A8782E38B872BE030E0F3C18A818139AD
:10F7400041F0823941F0803911F48FE005C080E04A
:10F7500003C082E001C08AE01A828B8344C0772410
:10F76000739482C08D81882311F48EE12CC0813086
:10F7700011F081E028C088E926C01A82E1E0F0E0BB
:10F7800089E08093570084918B831C8224E030E0D1
:10F79000C8C18B81803589F48C81883039F4E2E0EE
:10F7A000F0E089E08093570084910DC0E0E0F0E044
:10F7B00089E080935700849106C0E3E0F0E089E09F
:10F7C0008093570084911A82DFCF8D81836C99E0FA
:10F7D000E1E0F0E0082E90935700E89507B600FCB2
:10F7E000FDCF1A821B8223E030E09BC180EC8A832C
:10F7F000CE5CDE4F188219821A821B82C253D1401E
:10F800008EC18A8190E0A0E0B0E0582F44273327D2
:10F8100022278B8190E0A0E0B0E0DC0199278827C7
:10F82000282B392B4A2B5B2B8D8190E0A0E0B0E098
:10F83000282B392B4A2B5B2B8C8190E0A0E0B0E089
:10F84000BA2FA92F982F8827282B392B4A2B5B2BCF
:10F85000220F331F441F551FC05EDE4F288339839C
:10F860004A835B83C052D1401A8259C13A81C95C34
:10F87000DE4F3883C753D140CA5CDE4F1882C6536F
:10F88000D1408B81C82EDD24CA5CDE4F488159816E
:10F89000C653D140C42AD52A933109F082C0CE5C28
:10F8A000DE4F88819981AA81BB81C253D1408050AB
:10F8B000904CA340B04030F583E0CE5CDE4FE88052
:10F8C000F9800A811B81C253D140F70100935B008C
:10F8D00080935700E89507B600FCFDCFCE5CDE4F65
:10F8E000088119812A813B81C253D14000501F4FAA
:10F8F0002F4F3F4FCE5CDE4F088319832A833B8313
:10F90000C253D140C05EDE4F488159816A817B81FC
:10F91000C052D140DE011B9631E08C9111962C91A2
